:020000040800F2
:1000000018040020450100084D0100084F010008B8
:1000100051010008530100085501000800000000CC
:100020000000000000000000000000005701000870
:1000300059010008000000005B010008F54E0008AF
:100040005F0100085F0100085F0100085F01000810
:100050005F0100085F0100085F0100085F01000800
:100060005F0100085F0100085F0100085F010008F0
:100070005F0100085F0100085F0100085F010008E0
:100080005F0100085F0100085F0100085F010008D0
:100090005F0100085F0100085F0100085F010008C0
:1000A0005F0100085F0100085F0100085F010008B0
:1000B0005F0100085F0100085F0100085F010008A0
:1000C0005F0100085F0100085F0100085F01000890
:1000D0005F0100085F0100085F0100085F01000880
:1000E0005F0100085F0100085F0100085F01000870
:1000F0005F0100085F0100085F0100085F01000860
:100100005F0100085F0100085F0100085F0100084F
:100110005F0100085F0100085F0100085F0100083F
:100120005F0100085F0100085F0100085F0100082F
:10013000DFF80CD000F01EF90048004729500008F5
:10014000180400200648804706480047FEE7FEE7FF
:10015000FEE7FEE7FEE7FEE7FEE7FEE7FEE7FEE777
:10016000254F0008310100082DE9FE4F81EA030404
:1001700004F0004421F0004100944FF0000B23F004
:10018000004350EA01045ED052EA03045BD0C3F39B
:100190000A54C1F30A552C44A4F2F3340194A0FB91
:1001A0000254C1F3130141F48011C3F3130343F468
:1001B000801301FB024400FB034E840A970A44EAC1
:1001C000815447EA8357A4FB076802958D0A05FB13
:1001D00007854FEA932C04FB0C542705029D4FEA38
:1001E000065847EA1637B5EB08056EEB070C870E85
:1001F000920E47EA811742EA8312A7FB0201B6EB8F
:100200000B0164EB00042B0D43EA0C335E1844EB46
:100210001C50DA465146E7FB0201C5F313044FEACE
:100220000B3343EA14534FEA0432019C43EA0603BA
:10023000A4F10C040294009CCDE900B400F04BF84A
:1002400003B0BDE8F08F00200146F9E70EB540F29B
:10025000334102910021CDE900110A460B4600F01E
:100260003AF803B000BDC1F30A5210B5C1F313014F
:1002700040F2FF3341F480119A4201DA002010BDB0
:1002800040F233439A42A2F2334203DC524200F07E
:1002900003F810BD904010BD202A04DB203A21FA5B
:1002A00002F00021704721FA02F3D040C2F120028F
:1002B000914008431946704710B5141E73F10004AD
:1002C00008DA401C41F1000192185B411A4301D148
:1002D00020F0010010BD2DE9F04D92469B4611B172
:1002E000B1FA81F202E0B0FA80F22032904600F0DA
:1002F00053F804460F4640EA0A0041EA0B01534610
:100300005A46084313D0114653EA010019D0C8F1E8
:1003100040025046FFF7C0FF05460E46504659467C
:10032000424600F039F8084305D0012004E0204699
:100330003946BDE8F08D0020054346EAE0762C43BF
:1003400037430A986305E40AA0EB08000022FD0A7F
:1003500044EA47540A3002D500200146E9E7010586
:1003600010196941DDE9084500196941BDE8F04D02
:10037000A2E70000064C074D06E0E06840F00103EC
:1003800094E8070098471034AC42F6D3FFF7D4FE48
:1003900094E70008A4E70008202A04DB203A00FACA
:1003A00002F1002070479140C2F1200320FA03F3CC
:1003B0001943904070470000CA7802F00F0C12F009
:1003C000100F1CBF8A784CEA020C2DE9F0430A8812
:1003D00012F0FF0F22D00268B1F8009000264FF013
:1003E00001084FF00F0E002408FA04F717EA090F6E
:1003F0000ED00CFA06F50EFA06F39A432A43CD788E
:10040000482D03D0282D08BF476101E0076100BFD8
:1004100004360134082CE7D102600A88B2F5807FE7
:1004200038BFBDE8F0834368B1F800E04FF0080240
:100430004FF000044FF001094FF00F0809FA02F7DE
:1004400017EA0E0F0DD00CFA04F608FA04F5AB43C8
:100450003343CE78282E04BF4761CE78482E08BF9C
:10046000076104340132102AE8D14360BDE8F0830B
:10047000B0B540F2040EC4F2010E00287246B8BFB7
:10048000183213681FFA80FCC0F3034400F44015CF
:10049000B5F5401F08D1DEF8004024F07064CEF8B6
:1004A000004023F070630DE0C50206D447F6F075F6
:1004B00005EA50450CFA05F501E00325A540AB43DC
:1004C00043F0706300291FBF47F6F07101EA504006
:1004D0000CFA00F003431360B0BD000041617047A7
:1004E0000161704770B5044640F20006C2F2000692
:1004F0003088718801FB00F5B08846F60401884217
:1005000004BFB079012812D10020B0712A20C0F2B6
:100510002B00C6F80A000020002104F0E1FA0120B7
:10052000B0712B20C0F22A00C6F80A0003E00020B8
:10053000002104F0D5FA04F049FC002D08BF70BD7D
:1005400041F21000C4F201004FF480714FF40072C8
:1005500040F60C43C4F201034FF080060160426094
:100560001C60466006600260013DF7D170BD00006E
:1005700040F20001C2F200018A88E0B101208871D6
:1005800040F24010C0F2F000086045F20F50824285
:1005900030DD45F21050824255D046F604008242CA
:1005A0005AD049F2413082422CD02220C0F22100A0
:1005B0008860202055E000208871F020C0F24010B3
:1005C000086045F20F50824222DD45F2105082420F
:1005D00065D049F24130824222D046F60400824280
:1005E0001ED02220C0F220008860212088810020B7
:1005F00004F0C0B841F66310824234D045F21030A6
:100600008242D2D12C20C0F22A0088602B2028E020
:1006100041F6631082424BD045F210308242E0D165
:100620002C20C0F22A0088602B20888146F6040026
:1006300082421CBF45F2103082422DD140F2401060
:10064000C0F2E0103EE04FF4305008814FF42850E3
:1006500048814FF42C500BE02C20C0F22B00886016
:100660002A2088810AE02C2008812A2048812B201A
:10067000888140F22030C0F2E0100860888846F699
:10068000040290421CBF45F21032904204D140F265
:10069000E010C0F240100860002004F06BB84FF486
:1006A000305008814FF4285048814FF42C5004E01A
:1006B0002C2008812B2048812A20888140F2E010DC
:1006C000C0F220300860002004F054B82DE9F04F4B
:1006D00081B090460E46814640F20004C2F200040A
:1006E000A08840F60C4BC4F2010B41F21007C4F293
:1006F000010749F24131884208D045F21051884241
:100700003FD045F21031884240F08080608904F08B
:1007100047FB4FF480753D60DA46B3464FF40074F2
:100720007C604FEA1920CAF8000080267E603E6097
:100730003C603D607C605FFA89F0CAF800007E6032
:100740003E603C6040F20000C2F20000808904F08C
:1007500027FB3D607C604FEA1B20CAF800007E60EA
:100760003E603C603D607C605FFA8BF0D346CBF826
:1007700000007E603E603C6040F20004C2F2000473
:100780000DE1608904F00CFBCDF800804FF4807817
:10079000C7F800804FF400757D604FEA1920CBF850
:1007A0000000A24680247C603C603D60BAF80A00EC
:1007B000013080B204F0F4FAC7F800807D605FFA7F
:1007C00089F0CBF800007C603C603D60BAF80C001A
:1007D00004F0E6FAC7F800807D60300ACBF800002C
:1007E0007C603C603D60BAF80C00013080B204F0DF
:1007F000D7FAC7F80080DDF800807D60F0B2CBF852
:1008000000007C603C6054463D60C8E0A2794FF631
:10081000FF7141F6631398426CD1C246002A02BFB1
:1008200089EA0100218800EB0109608904F0B8FA27
:100830004FF480743C604FF400757D60C9F307206D
:10084000CBF800004FF08008C7F80480C7F800809C
:100850003D603C607D605FFA89F1CBF80010C7F81D
:100860000480C7F800803D603C607D60CBF80000EC
:10087000C7F80480C7F800803D603C607D60CBF81D
:100880000010C7F80480C7F800803D6040F2000007
:10089000C2F20000808904F083FA3C607D604FEA78
:1008A0001620CBF80000C7F80480C7F800803D6030
:1008B0003C607D60F1B2CBF80010C7F80480C7F847
:1008C00000803D603C607D60CBF80000C7F804808C
:1008D000C7F800803D603C6040F20004C2F20004B2
:1008E0007D60CBF80010C7F80480C7F800803D6039
:1008F000D04654E046F60403984240D1B246012A5D
:1009000002BF89EA0100218800EB0109608904F037
:1009100047FA4FF480753D604FF400747C60C9F372
:100920000720CBF800004FF080067E603E603C6000
:100930003D607C605FFA89F0CBF800007E603E602D
:100940003C6040F20000C2F20000808904F028FA06
:100950003D607C604FEA1A20CBF800007E603E606C
:100960003C603D607C605FFA8AF0CBF800007E60FE
:100970003E603C6040F20004C2F200040FE0012A35
:1009800002BF89EA0100218800EB010960891FFA92
:1009900089F104F023FAA089314604F01FFA4FF4DC
:1009A000807078604FF4007179602289CBF8002064
:1009B00080227A603A60396038607960CBF80080D4
:1009C0007A603A60396001B0BDE8F08F2DE9F04FF0
:1009D00081B01920012104F019FA40F20020C0F280
:1009E00030000121FFF744FD4FF4F860ADF800003E
:1009F00041F20300ADF8020041F21006C4F2010614
:100A0000A6F110046D4620462946FFF7D5FC204686
:100A10004FF4F861FFF764FD4FF6FF77ADF8007013
:100A2000A6F5826420462946FFF7C6FC20464FF60D
:100A3000FF71FFF755FD322004F046FB0020012135
:100A400004F0CCF9322004F03FFB002003F032FE2A
:100A500040F20005C2F20005A8804DF2EF044FF20B
:100A60000108FF2805D3B84218BFB0F5134F42F074
:100A70008781D32004F094F903F0D4FD03F0D2FD74
:100A800003F0D0FD0002A88003F0CCFDA988084344
:100A9000A88080B249F24131884202F06B83BF20C6
:100AA00004F07EF903F0BEFD03F0BCFD03F0BAFDD7
:100AB00003F0B8FD0002A88003F0B4FDA988084344
:100AC000A88080B246F60401884240F0AA80112036
:100AD00004F066F9142004F0F7FAD02004F060F96D
:100AE000072004F049F9422004F046F91D2004F0E3
:100AF00043F9D12004F054F9002004F03DF91A2004
:100B000004F03AF9092004F037F9D22004F048F94A
:100B1000012004F031F9222004F02EF9C02004F065
:100B20003FF9102004F028F93B2004F025F90020BB
:100B300004F022F9022004F01FF9112004F01CF93E
:100B4000C52004F02DF9032004F016F9C82004F0A4
:100B500027F9002004F010F9252004F00DF92120D8
:100B600004F00AF9052004F007F9002004F004F964
:100B70000A2004F001F9652004F0FEF8252004F0B5
:100B8000FBF8772004F0F8F8502004F0F5F80F2077
:100B900004F0F2F8002004F0EFF8F82004F000F977
:100BA000012004F0E9F8FE2004F0FAF8002004F037
:100BB000E3F8022004F0E0F8202004F0F1F83620F9
:100BC00004F0EEF8082004F0D7F83A2004F0E8F832
:100BD000552004F0D1F82B2004F0E2F8002004F0B6
:100BE000CBF8002004F0C8F8012004F0C5F83F203D
:100BF00004F0C2F82A2004F0D3F8002004F0BCF876
:100C0000002004F0B9F8012004F0B6F8DF2004F069
:100C1000B3F8782004F058FA292004F0C1F802F063
:100C200089B8D42004F0BCF803F0FCFC03F0FAFC13
:100C300003F0F8FC0002A88003F0F4FCA988084344
:100C4000A88080B245F21031884240F07987ED20CB
:100C500004F0A6F8012004F08FF8FE2004F08CF8D0
:100C6000EE2004F09DF8DE2004F086F8212004F048
:100C700083F8F12004F094F8012004F07DF8DF20DF
:100C800004F08EF8102004F077F8C42004F088F8FF
:100C90008F2004F071F8C62004F082F8002004F0E0
:100CA0006BF8E22004F068F8E22004F065F8E22036
:100CB00004F062F8BF2004F073F8AA2004F05CF896
:100CC000B02004F06DF80D2004F056F8002004F078
:100CD00053F80D2004F050F8002004F04DF81120D6
:100CE00004F04AF8002004F047F8192004F044F812
:100CF000002004F041F8212004F03EF8002004F028
:100D00003BF82D2004F038F8002004F035F83D20A1
:100D100004F032F8002004F02FF85D2004F02CF8E5
:100D2000002004F029F85D2004F026F8002004F0EB
:100D300023F8B12004F034F8802004F01DF80020DE
:100D400004F01AF88B2004F017F8002004F014F8CF
:100D5000962004F011F8002004F00EF8B22004F000
:100D60001FF8002004F008F8002004F005F8022025
:100D700004F002F8002003F0FFFF032003F0FCFF63
:100D8000002003F0F9FFB32004F00AF8002003F07C
:100D9000F3FF002003F0F0FF002003F0EDFF002040
:100DA00003F0EAFF002003F0E7FF002003F0E4FF78
:100DB000002003F0E1FF002003F0DEFF002003F03D
:100DC000DBFF002003F0D8FF002003F0D5FF002058
:100DD00003F0D2FF002003F0CFFF002003F0CCFF90
:100DE000002003F0C9FF002003F0C6FF002003F03D
:100DF000C3FF002003F0C0FF002003F0BDFF002070
:100E000003F0BAFF002003F0B7FF002003F0B4FFA7
:100E1000002003F0B1FF002003F0AEFFB42003F088
:100E2000BFFF8B2003F0A8FF002003F0A5FF962052
:100E300003F0A2FF002003F09FFFA12003F09CFF1E
:100E4000002003F099FFB52003F0AAFF022003F071
:100E500093FF002003F090FF032003F08DFF00209C
:100E600003F08AFF042003F087FF002003F084FFD3
:100E7000B62003F095FF002003F07EFF002003F072
:100E80007BFFB72003F08CFF002003F075FF0020EC
:100E900003F072FF3F2003F06FFF002003F06CFFB0
:100EA0005E2003F069FF002003F066FF642003F07A
:100EB00063FF002003F060FF8C2003F05DFF002043
:100EC00003F05AFFAC2003F057FF002003F054FF5B
:100ED000DC2003F051FF002003F04EFF702003F0F0
:100EE0004BFF002003F048FF902003F045FF002057
:100EF00003F042FFEB2003F03FFF002003F03CFF34
:100F0000DC2003F039FF002003F036FFB82003F0A7
:100F100047FF002003F030FF002003F02DFF0020EA
:100F200003F02AFF002003F027FF002003F024FF36
:100F3000002003F021FF002003F01EFF002003F03B
:100F40001BFFBA2003F02CFF242003F015FF002024
:100F500003F012FF002003F00FFF002003F00CFF4E
:100F6000C12003F01DFF202003F006FF002003F046
:100F700003FF542003F000FF002003F0FDFEFF20DC
:100F800003F0FAFE002003F0F7FEC22003F008FF92
:100F90000A2003F0F1FE002003F0EEFE042003F02F
:100FA000EBFE002003F0E8FEC32003F0F9FE3C2036
:100FB00003F0E2FE002003F0DFFE3A2003F0DCFE47
:100FC000002003F0D9FE392003F0D6FE002003F004
:100FD000D3FE372003F0D0FE002003F0CDFE3C20EE
:100FE00003F0CAFE002003F0C7FE362003F0C4FE63
:100FF000002003F0C1FE322003F0BEFE002003F00B
:10100000BBFE2F2003F0B8FE002003F0B5FE2C201D
:1010100003F0B2FE002003F0AFFE292003F0ACFE87
:10102000002003F0A9FE262003F0A6FE002003F016
:10103000A3FE242003F0A0FE002003F09DFE242048
:1010400003F09AFE002003F097FE232003F094FEA5
:10105000002003F091FE3C2003F08EFE002003F000
:101060008BFE362003F088FE002003F085FE322040
:1010700003F082FE002003F07FFE2F2003F07CFEB1
:10108000002003F079FE2C2003F076FE002003F010
:1010900073FE292003F070FE002003F06DFE262071
:1010A00003F06AFE002003F067FE242003F064FED4
:1010B000002003F061FE242003F05EFE002003F018
:1010C0005BFE232003F058FE002003F055FEC420F1
:1010D00003F066FE622003F04FFE002003F04CFE9A
:1010E000052003F049FE002003F046FE842003F0B3
:1010F00043FE002003F040FEF02003F03DFE002000
:1011000003F03AFE182003F037FE002003F034FE0F
:10111000A42003F031FE002003F02EFE182003F07F
:101120002BFE002003F028FE502003F025FE0020B7
:1011300003F022FE0C2003F01FFE002003F01CFE33
:10114000172003F019FE002003F016FE952003F08F
:1011500013FE002003F010FEF32003F00DFE00202C
:1011600003F00AFEE62003F007FE002003F004FE71
:10117000C52003F015FE322003F0FEFD002003F031
:10118000FBFD442003F0F8FD002003F0F5FD652091
:1011900003F0F2FD002003F0EFFD762003F0ECFDFC
:1011A000002003F0E9FD882003F0E6FD002003F0B5
:1011B000E3FDC62003F0F4FD202003F0DDFD002058
:1011C00003F0DAFD172003F0D7FD002003F0D4FD73
:1011D000012003F0D1FD002003F0CEFDC72003F075
:1011E000DFFD002003F0C8FD002003F0C5FD002056
:1011F00003F0C2FD002003F0BFFDC82003F0D0FDC6
:10120000002003F0B9FD002003F0B6FD002003F03C
:10121000B3FD002003F0B0FDC92003F0C1FD0020A4
:1012200003F0AAFD002003F0A7FD002003F0A4FDB9
:10123000002003F0A1FD002003F09EFD002003F03C
:101240009BFD002003F098FD002003F095FD002099
:1012500003F092FD002003F08FFD002003F08CFDD1
:10126000002003F089FD002003F086FD002003F03C
:1012700083FD002003F080FD002003F07DFDE020D1
:1012800003F08EFD162003F077FD002003F074FDBF
:101290001C2003F071FD002003F06EFD212003F0FF
:1012A0006BFD002003F068FD362003F065FD002093
:1012B00003F062FD462003F05FFD002003F05CFDBB
:1012C000522003F059FD002003F056FD642003F086
:1012D00053FD002003F050FD7A2003F04DFD002067
:1012E00003F04AFD8B2003F047FD002003F044FD8E
:1012F000992003F041FD002003F03EFDA82003F0FB
:101300003BFD002003F038FDB92003F035FD00203F
:1013100003F032FDC42003F02FFD002003F02CFD6C
:10132000CA2003F029FD002003F026FDD22003F09F
:1013300023FD002003F020FDD92003F01DFD002037
:1013400003F01AFDE02003F017FD002003F014FD68
:10135000F32003F011FD002003F00EFDE12003F067
:101360001FFD162003F008FD002003F005FD1C20E2
:1013700003F002FD002003F0FFFC222003F0FCFC40
:10138000002003F0F9FC362003F0F6FC002003F007
:10139000F3FC452003F0F0FC002003F0EDFC5220AC
:1013A00003F0EAFC002003F0E7FC642003F0E4FC17
:1013B000002003F0E1FC7A2003F0DEFC002003F0C3
:1013C000DBFC8B2003F0D8FC002003F0D5FC992037
:1013D00003F0D2FC002003F0CFFCA82003F0CCFCEB
:1013E000002003F0C9FCB92003F0C6FC002003F084
:1013F000C3FCC42003F0C0FC002003F0BDFCCA20E5
:1014000003F0BAFC002003F0B7FCD22003F0B4FCD8
:10141000002003F0B1FCD82003F0AEFC002003F064
:10142000ABFCE02003F0A8FC002003F0A5FCF320B7
:1014300003F0A2FC002003F09FFCE22003F0B0FCCC
:10144000052003F099FC002003F096FC0B2003F02C
:1014500093FC002003F090FC1B2003F08DFC002087
:1014600003F08AFC342003F087FC002003F084FCA6
:10147000442003F081FC002003F07EFC4F2003F0A9
:101480007BFC002003F078FC612003F075FC002059
:1014900003F072FC792003F06FFC002003F06CFC79
:1014A000882003F069FC002003F066FC972003F01D
:1014B00063FC002003F060FCA62003F05DFC00202C
:1014C00003F05AFCB72003F057FC002003F054FC53
:1014D000C22003F051FC002003F04EFCC72003F0B3
:1014E0004BFC002003F048FCD12003F045FC002019
:1014F00003F042FCD62003F03FFC002003F03CFC4C
:10150000DD2003F039FC002003F036FCF32003F06B
:1015100033FC002003F030FCE32003F041FC052005
:1015200003F02AFC002003F027FC0A2003F024FC2F
:10153000002003F021FC1C2003F01EFC002003F01F
:101540001BFC332003F018FC002003F015FC4420A2
:1015500003F012FC002003F00FFC502003F00CFC01
:10156000002003F009FC622003F006FC002003F0D9
:1015700003FC782003F000FC002003F0FDFB882032
:1015800003F0FAFB002003F0F7FB972003F0F4FBD5
:10159000002003F0F1FBA62003F0EEFB002003F097
:1015A000EBFBB72003F0E8FB002003F0E5FBC220D3
:1015B00003F0E2FB002003F0DFFBC72003F0DCFBBD
:1015C000002003F0D9FBD12003F0D6FB002003F06C
:1015D000D3FBD52003F0D0FB002003F0CDFBDD20B2
:1015E00003F0CAFB002003F0C7FBF32003F0C4FBA9
:1015F000002003F0C1FBE42003F0D2FB012003F044
:10160000BBFB002003F0B8FB012003F0B5FB00207A
:1016100003F0B2FB022003F0AFFB002003F0ACFBB1
:101620002A2003F0A9FB002003F0A6FB3C2003F0D6
:10163000A3FB002003F0A0FB4B2003F09DFB002048
:1016400003F09AFB5D2003F097FB002003F094FB6E
:10165000742003F091FB002003F08EFB842003F044
:101660008BFB002003F088FB932003F085FB002018
:1016700003F082FBA22003F07FFB002003F07CFB41
:10168000B32003F079FB002003F076FBBE2003F0CB
:1016900073FB002003F070FBC42003F06DFB0020FF
:1016A00003F06AFBCD2003F067FB002003F064FB2E
:1016B000D32003F061FB002003F05EFBDD2003F08C
:1016C0005BFB002003F058FBF32003F055FB0020E8
:1016D00003F052FBE52003F063FB002003F04CFB1A
:1016E000002003F049FB002003F046FB002003F03C
:1016F00043FB022003F040FB002003F03DFB2920C8
:1017000003F03AFB002003F037FB3C2003F034FBEE
:10171000002003F031FB4B2003F02EFB002003F0F0
:101720002BFB5D2003F028FB002003F025FB742039
:1017300003F022FB002003F01FFB842003F01CFBBE
:10174000002003F019FB932003F016FB002003F0A8
:1017500013FBA22003F010FB002003F00DFBB320CD
:1017600003F00AFB002003F007FBBE2003F004FB9C
:10177000002003F001FBC42003F0FEFA002003F078
:10178000FBFACD2003F0F8FA002003F0F5FAD3209D
:1017900003F0F2FA002003F0EFFADC2003F0ECFA99
:1017A000002003F0E9FAF32003F0E6FA002003F04A
:1017B000E3FAE62003F0F4FA112003F0DDFA00204A
:1017C00003F0DAFA342003F0D7FA002003F0D4FA59
:1017D000562003F0D1FA002003F0CEFA762003F071
:1017E000CBFA002003F0C8FA772003F0C5FA0020F6
:1017F00003F0C2FA662003F0BFFA002003F0BCFA3F
:10180000882003F0B9FA002003F0B6FA992003F01B
:10181000B3FA002003F0B0FABB2003F0ADFA0020C9
:1018200003F0AAFA992003F0A7FA002003F0A4FA23
:10183000662003F0A1FA002003F09EFA552003F081
:101840009BFA002003F098FA552003F095FA002047
:1018500003F092FA452003F08FFA002003F08CFA8F
:10186000432003F089FA002003F086FA442003F0B5
:1018700083FA002003F080FAE72003F091FA322087
:1018800003F07AFA002003F077FA552003F074FA97
:10189000002003F071FA762003F06EFA002003F0C6
:1018A0006BFA662003F068FA002003F065FA6720FF
:1018B00003F062FA002003F05FFA672003F05CFA9D
:1018C000002003F059FA872003F056FA002003F0B5
:1018D00053FA992003F050FA002003F04DFABB2090
:1018E00003F04AFA002003F047FA992003F044FA83
:1018F000002003F041FA772003F03EFA002003F0C5
:101900003BFA442003F038FA002003F035FA562061
:1019100003F032FA002003F02FFA232003F02CFA10
:10192000002003F029FA332003F026FA002003F008
:1019300023FA452003F020FA002003F01DFAE820E6
:1019400003F02EFA002003F017FA002003F014FA37
:10195000992003F011FA002003F00EFA872003F01B
:101960000BFA002003F008FA882003F005FA0020A3
:1019700003F002FA772003F0FFF9002003F0FCF9EE
:10198000662003F0F9F9002003F0F6F9882003F04F
:10199000F3F9002003F0F0F9AA2003F0EDF900209C
:1019A00003F0EAF9BB2003F0E7F9002003F0E4F9C3
:1019B000992003F0E1F9002003F0DEF9662003F03E
:1019C000DBF9002003F0D8F9552003F0D5F9002009
:1019D00003F0D2F9552003F0CFF9002003F0CCF941
:1019E000442003F0C9F9002003F0C6F9442003F0B5
:1019F000C3F9002003F0C0F9552003F0BDF9002021
:101A000003F0BAF9E92003F0CBF9AA2003F0B4F906
:101A1000002003F0B1F9002003F0AEF9002003F03C
:101A2000ABF9002003F0BCF9AA2003F0A5F9CF2000
:101A300003F0B6F9002003F09FF9002003F09CF9B1
:101A4000002003F099F9002003F096F9002003F03C
:101A500093F9002003F090F9002003F08DF90020A5
:101A600003F08AF9002003F087F9002003F084F9DD
:101A7000002003F081F9002003F07EF9002003F03C
:101A80007BF9002003F078F9002003F075F90020BD
:101A900003F072F9002003F06FF9F02003F080F9F1
:101AA000002003F069F9502003F066F9002003F0EC
:101AB00063F9002003F060F9002003F05DF9F320E2
:101AC00003F06EF9002003F057F9F92003F068F9EC
:101AD000062003F051F9102003F04EF9292003F0FD
:101AE0004BF9002003F048F93A2003F059F955204A
:101AF00003F042F9112003F053F9642003F0E4FAF3
:101B0000292003F04DF9352003F04AF9002003F0B5
:101B100033F9512003F044F9FF2003F02DF953204D
:101B200003F03EF92C2003F027F9552003F038F993
:101B3000822003F021F92C2003F032F901F0FAB8E9
:101B40004FF45A4003F02CF902F06CFD4FF45B4067
:101B500003F026F902F066FD0002A8804FF45C4015
:101B600003F01EF902F05EFDA988084381B2B1F5C9
:101B7000004F08BF45F21050A88080B245F21051C6
:101B8000884241F0E7804FF47040552103F026F978
:101B90004FF20100AA2103F021F908F101001FFA18
:101BA00080F94846522103F019F908F102001FFAA2
:101BB00080FA5046082103F011F908F1030086B2BB
:101BC0003046012103F00AF94FF430400D2103F0B3
:101BD00005F94BF20115CFF6FF75A5F5807080B2BF
:101BE0000D2103F0FBF8A5F1FF0080B20D2103F0F9
:101BF000F5F84FF43640342103F0F0F84BF202557B
:101C0000CFF6FF7505F1FF0080B2342103F0E6F84E
:101C100005F5807080B2342103F0E0F84FF43140D4
:101C20000D2103F0DBF84BF201100D2103F0D6F883
:101C30004BF202100D2103F0D1F84FF4374034215C
:101C400003F0CCF84BF20170342103F0C7F84BF2EB
:101C50000177CFF6FF77781C80B2342103F0BEF80D
:101C60004FF43240002103F0B9F84BF20215CFF6E1
:101C7000FF7505F1FF0080B2002103F0AFF805F514
:101C8000807080B2002103F0A9F84FF4384024217D
:101C900003F0A4F807F5807087B23846242103F0DA
:101CA0009DF84BF60200242103F098F84FF43F40D2
:101CB000012103F093F84FF433400F2103F08EF825
:101CC0004BF201300F2103F089F84BF20135CFF6CA
:101CD000FF75681C80B20F2103F080F84FF4394083
:101CE000342103F07BF84BF60208CFF6FF7808F1B9
:101CF000FF0080B2342103F071F808F5807080B2E3
:101D0000342103F06BF84FF43540082103F066F8F6
:101D100005F5007080B2082103F060F84BF2025024
:101D2000082103F05BF84FF44240032103F056F81A
:101D30004FF43A40242103F051F84BF60145CFF619
:101D4000FF75A5F5007080B2242103F047F8A5F2D5
:101D5000FF1080B2242103F041F84FF43C400021F1
:101D600003F03CF84BF60140782103F037F84BF6CE
:101D70000240002103F032F84FF43D40002103F00F
:101D80002DF84BF60245CFF6FF7505F1FF0080B246
:101D9000782103F023F805F5807080B2002103F06C
:101DA0001DF84FF43E40002103F018F84BF6016097
:101DB000642103F013F84FF45140002103F00EF8B2
:101DC00004F1120080B2332103F008F804F113008B
:101DD00080B2002103F002F804F1140080B2342133
:101DE00002F0FCFF04F1150080B2002102F0F6FFC2
:101DF00004F1160080B23A2102F0F0FF04F117005E
:101E000080B2002102F0EAFF04F1180080B24A21FA
:101E100002F0E4FF04F1190080B2002102F0DEFFBD
:101E200004F11A0080B25C2102F0D8FF04F11B001B
:101E300080B2002102F0D2FF04F11C0080B28121A7
:101E400002F0CCFF04F11D0080B2002102F0C6FFB9
:101E500004F11E0080B2A62102F0C0FF04F11F00B1
:101E600080B2002102F0BAFF04F1200080B2E52127
:101E700002F0B4FF04F1210080B2012102F0AEFFB4
:101E800004F1220080B2132102F0A8FF04F1230024
:101E900080B2012102F0A2FF04F1240080B254219B
:101EA00002F09CFF04F1250080B2012102F096FFB0
:101EB00004F1260080B2822102F090FF04F1270095
:101EC00080B2012102F08AFF04F1280080B2CA2109
:101ED00002F084FF04F1290080B2022102F07EFFAB
:101EE00004F12A0080B2002102F078FF04F12B00F7
:101EF00080B2022102F072FF04F12C0080B20121B5
:101F000002F06CFF04F12D0080B2022102F066FFA6
:101F100004F12E0080B2342102F060FF04F12F00A2
:101F200080B2022102F05AFF04F1300080B2672132
:101F300002F054FF04F1310080B2022102F04EFFA2
:101F400004F1320080B2842102F048FF04F1330032
:101F500080B2022102F042FF04F1340080B2A421D9
:101F600002F03CFF04F1350080B2022102F036FF9E
:101F700004F1360080B2B72102F030FF04F13700DF
:101F800080B2022102F02AFF04F1380080B2CF2192
:101F900002F024FF04F1390080B2022102F01EFF9A
:101FA00004F13A0080B2DE2102F018FF04F13B0098
:101FB00080B2022102F012FF04F13C0080B2F22153
:101FC00002F00CFF04F13D0080B2022102F006FF96
:101FD00004F13E0080B2FE2102F000FF04F13F0058
:101FE00080B2032102F0FAFE04F1400080B2102119
:101FF00002F0F4FE04F1410080B2032102F0EEFE93
:1020000004F1420080B2332102F0E8FE04F1430003
:1020100080B2032102F0E2FE04F1440080B26D219F
:1020200002F0DCFE4FF45240002102F0D7FE04F52E
:10203000897080B2332102F0D1FE4DF202200021DE
:1020400002F0CCFE4DF20224CFF6FF74601C80B289
:10205000342102F0C3FEA01C80B2002102F0BEFEBB
:10206000E01C80B23A2102F0B9FE201D80B20021AE
:1020700002F0B4FE601D80B24A2102F0AFFEA01D46
:1020800080B2002102F0AAFEE01D80B25C2102F0C5
:10209000A5FE04F1080080B2002102F09FFE04F1C9
:1020A000090080B2812102F099FE04F10A0080B299
:1020B000002102F093FE04F10B0080B2A62102F091
:1020C0008DFE04F10C0080B2002102F087FE04F1C5
:1020D0000D0080B2E52102F081FE04F10E0080B215
:1020E000012102F07BFE04F10F0080B2132102F007
:1020F00075FE04F1100080B2012102F06FFE04F1C0
:10210000110080B2542102F069FE04F1120080B285
:10211000012102F063FE04F1130080B2822102F07B
:102120005DFE04F1140080B2012102F057FE04F1BB
:10213000150080B2CA2102F051FE04F1160080B2EF
:10214000022102F04BFE04F1170080B2002102F0E0
:1021500045FE04F1180080B2022102F03FFE04F1B6
:10216000190080B2012102F039FE04F11A0080B298
:10217000022102F033FE04F11B0080B2342102F090
:102180002DFE04F11C0080B2022102F027FE04F1B2
:102190001D0080B2672102F021FE04F11E0080B212
:1021A000022102F01BFE04F11F0080B2842102F024
:1021B00015FE04F1200080B2022102F00FFE04F1AE
:1021C000210080B2A42102F009FE04F1220080B2B5
:1021D000022102F003FE04F1230080B2B72102F0D5
:1021E000FDFD04F1240080B2022102F0F7FD04F1AC
:1021F000250080B2CF2102F0F1FD04F1260080B26B
:10220000022102F0EBFD04F1270080B2DE2102F092
:10221000E5FD04F1280080B2022102F0DFFD04F1A7
:10222000290080B2F22102F0D9FD04F12A0080B227
:10223000022102F0D3FD04F12B0080B2FE2102F056
:10224000CDFD04F12C0080B2032102F0C7FD04F1A2
:102250002D0080B2102102F0C1FD04F12E0080B2E9
:10226000032102F0BBFD04F12F0080B2332102F004
:10227000B5FD04F1300080B2032102F0AFFD04F19E
:10228000310080B26D2102F0A9FD4FF453400021CE
:1022900002F0A4FD04F1FF0080B2332102F09EFDA4
:1022A00004F5807080B2002102F098FD4DF20330F9
:1022B000342102F093FD4DF20334CFF6FF74601C1D
:1022C00080B2002102F08AFDA01C80B23A2102F007
:1022D00085FDE01C80B2002102F080FD201D80B24F
:1022E0004A2102F07BFD601D80B2002102F076FDE4
:1022F000A01D80B25C2102F071FDE01D80B20021C2
:1023000002F06CFD04F1080080B2812102F066FD4C
:1023100004F1090080B2002102F060FD04F10A001E
:1023200080B2A62102F05AFD04F10B0080B2002118
:1023300002F054FD04F10C0080B2E52102F04EFDE4
:1023400004F10D0080B2012102F048FD04F10E00FD
:1023500080B2132102F042FD04F10F0080B201218E
:1023600002F03CFD04F1100080B2542102F036FD71
:1023700004F1110080B2012102F030FD04F11200DD
:1023800080B2822102F02AFD04F1130080B2012103
:1023900002F024FD04F1140080B2CA2102F01EFDF7
:1023A00004F1150080B2022102F018FD04F11600BC
:1023B00080B2002102F012FD04F1170080B2022168
:1023C00002F00CFD04F1180080B2012102F006FDBC
:1023D00004F1190080B2022102F000FD04F11A009C
:1023E00080B2342102F0FAFC04F11B0080B2022119
:1023F00002F0F4FC04F11C0080B2672102F0EEFC54
:1024000004F11D0080B2022102F0E8FC04F11E007C
:1024100080B2842102F0E2FC04F11F0080B20221AC
:1024200002F0DCFC04F1200080B2A42102F0D6FC12
:1024300004F1210080B2022102F0D0FC04F122005C
:1024400080B2B72102F0CAFC04F1230080B202215D
:1024500002F0C4FC04F1240080B2CF2102F0BEFCE3
:1024600004F1250080B2022102F0B8FC04F126003C
:1024700080B2DE2102F0B2FC04F1270080B202211A
:1024800002F0ACFC04F1280080B2F22102F0A6FCBC
:1024900004F1290080B2022102F0A0FC04F12A001C
:1024A00080B2FE2102F09AFC04F12B0080B20321DD
:1024B00002F094FC04F12C0080B2102102F08EFC9A
:1024C00004F12D0080B2032102F088FC04F12E00FB
:1024D00080B2332102F082FC04F12F0080B203218C
:1024E00002F07CFC04F1300080B26D2102F076FC39
:1024F0004FF45440002102F071FC04F1FE0080B260
:10250000332102F06BFC04F1FF0080B2002102F0E5
:1025100065FC04F5807080B2342102F05FFC4DF25E
:102520000440002102F05AFC4DF20444CFF6FF743F
:10253000601C80B23A2102F051FCA01C80B2002144
:1025400002F04CFCE01C80B24A2102F047FC201D46
:1025500080B2002102F042FC601D80B25C2102F0DA
:102560003DFCA01D80B2002102F038FCE01D80B2CD
:10257000812102F033FC04F1080080B2002102F056
:102580002DFC04F1090080B2A62102F027FC04F121
:102590000A0080B2002102F021FC04F10B0080B29D
:1025A000E52102F01BFC04F10C0080B2012102F0D5
:1025B00015FC04F10D0080B2132102F00FFC04F1B0
:1025C0000E0080B2012102F009FC04F10F0080B27C
:1025D000542102F003FC04F1100080B2012102F04A
:1025E000FDFB04F1110080B2822102F0F7FB04F13F
:1025F000120080B2012102F0F1FB04F1130080B25D
:10260000CA2102F0EBFB04F1140080B2022102F0B7
:10261000E5FB04F1150080B2002102F0DFFB04F1BC
:10262000160080B2022102F0D9FB04F1170080B23B
:10263000012102F0D3FB04F1180080B2022102F064
:10264000CDFB04F1190080B2342102F0C7FB04F184
:102650001A0080B2022102F0C1FB04F11B0080B21B
:10266000672102F0BBFB04F11C0080B2022102F0E2
:10267000B5FB04F11D0080B2842102F0AFFB04F130
:102680001E0080B2022102F0A9FB04F11F0080B2FB
:10269000A42102F0A3FB04F1200080B2022102F089
:1026A0009DFB04F1210080B2B72102F097FB04F1F9
:1026B000220080B2022102F091FB04F1230080B2DB
:1026C000CF2102F08BFB04F1240080B2022102F042
:1026D00085FB04F1250080B2DE2102F07FFB04F1CE
:1026E000260080B2022102F079FB04F1270080B2BB
:1026F000F22102F073FB04F1280080B2022102F003
:102700006DFB04F1290080B2FE2102F067FB04F1A9
:102710002A0080B2032102F061FB04F12B0080B299
:10272000102102F05BFB04F12C0080B2032102F0C7
:1027300055FB04F12D0080B2332102F04FFB04F170
:102740002E0080B2032102F049FB04F12F0080B279
:102750006D2102F043FB4FF45540002102F03EFB97
:1027600004F1FD0080B2332102F038FB04F1FE00D9
:1027700080B2002102F032FB04F1FF0080B234216C
:1027800002F02CFB04F5807080B2002102F026FBE1
:102790004DF205503A2102F021FB4DF20554CFF6DF
:1027A000FF74601C80B2002102F018FBA01C80B2F4
:1027B0004A2102F013FBE01C80B2002102F00EFB64
:1027C000201D80B25C2102F009FB601D80B2002157
:1027D00002F004FBA01D80B2812102F0FFFAE01D8F
:1027E00080B2002102F0FAFA04F1080080B2A621BA
:1027F00002F0F4FA04F1090080B2002102F0EEFACE
:1028000004F10A0080B2E52102F0E8FA04F10B00BD
:1028100080B2012102F0E2FA04F10C0080B213212F
:1028200002F0DCFA04F10D0080B2012102F0D6FAC8
:1028300004F10E0080B2542102F0D0FA04F10F002E
:1028400080B2012102F0CAFA04F1100080B28221A4
:1028500002F0C4FA04F1110080B2012102F0BEFAC4
:1028600004F1120080B2CA2102F0B8FA04F1130098
:1028700080B2022102F0B2FA04F1140080B2002109
:1028800002F0ACFA04F1150080B2022102F0A6FABF
:1028900004F1160080B2012102F0A0FA04F1170041
:1028A00080B2022102F09AFA04F1180080B23421B9
:1028B00002F094FA04F1190080B2022102F08EFABB
:1028C00004F11A0080B2672102F088FA04F11B00BB
:1028D00080B2022102F082FA04F11C0080B284214D
:1028E00002F07CFA04F11D0080B2022102F076FAB7
:1028F00004F11E0080B2A42102F070FA04F11F005E
:1029000080B2022102F06AFA04F1200080B2B721FD
:1029100002F064FA04F1210080B2022102F05EFAB2
:1029200004F1220080B2CF2102F058FA04F1230012
:1029300080B2022102F052FA04F1240080B2DE21BA
:1029400002F04CFA04F1250080B2022102F046FAAE
:1029500004F1260080B2F22102F040FA04F12700CF
:1029600080B2022102F03AFA04F1280080B2FE217E
:1029700002F034FA04F1290080B2032102F02EFAA9
:1029800004F12A0080B2102102F028FA04F12B0091
:1029900080B2032102F022FA04F12C0080B233212C
:1029A00002F01CFA04F12D0080B2032102F016FAA5
:1029B00004F12E0080B26D2102F010FA4FF456405F
:1029C000002102F00BFA04F1FC0080B2332102F086
:1029D00005FA04F1FD0080B2002102F0FFF904F1D4
:1029E000FE0080B2342102F0F9F904F1FF0080B258
:1029F000002102F0F3F904F5807080B23A2102F070
:102A0000EDF94DF20660002102F0E8F94DF206649E
:102A1000CFF6FF74601C80B24A2102F0DFF9A01CDF
:102A200080B2002102F0DAF9E01C80B25C2102F0F1
:102A3000D5F9201D80B2002102F0D0F9601D80B2CE
:102A4000812102F0CBF9A01D80B2002102F0C6F96D
:102A5000E01D80B2A62102F0C1F904F1080080B2A5
:102A6000002102F0BBF904F1090080B2E52102F077
:102A7000B5F904F10A0080B2012102F0AFF904F1C6
:102A80000B0080B2132102F0A9F904F10C0080B20E
:102A9000012102F0A3F904F10D0080B2542102F0EB
:102AA0009DF904F10E0080B2012102F097F904F1C2
:102AB0000F0080B2822102F091F904F1100080B27F
:102AC000012102F08BF904F1110080B2CA2102F059
:102AD00085F904F1120080B2022102F07FF904F1BD
:102AE000130080B2002102F079F904F1140080B2E1
:102AF000022102F073F904F1150080B2012102F005
:102B00006DF904F1160080B2022102F067F904F1B8
:102B1000170080B2342102F061F904F1180080B28C
:102B2000022102F05BF904F1190080B2672102F082
:102B300055F904F11A0080B2022102F04FF904F1B4
:102B40001B0080B2842102F049F904F11C0080B21C
:102B5000022102F043F904F11D0080B2A42102F029
:102B60003DF904F11E0080B2022102F037F904F1B0
:102B70001F0080B2B72102F031F904F1200080B2C9
:102B8000022102F02BF904F1210080B2CF2102F0E2
:102B900025F904F1220080B2022102F01FF904F1AC
:102BA000230080B2DE2102F019F904F1240080B282
:102BB000022102F013F904F1250080B2F22102F0A3
:102BC0000DF904F1260080B2022102F007F904F1A8
:102BD000270080B2FE2102F001F904F1280080B242
:102BE000032102F0FBF804F1290080B2102102F069
:102BF000F5F804F12A0080B2032102F0EFF804F1A5
:102C00002B0080B2332102F0E9F804F12C0080B2ED
:102C1000032102F0E3F804F12D0080B26D2102F0EF
:102C2000DDF84FF47040552102F0D8F84FF2010062
:102C3000AA2102F0D3F84846522102F0CFF85046BC
:102C4000082102F0CBF83046002102F0C7F84FF41B
:102C50003140CC2102F0C2F84BF20110002102F009
:102C6000BDF84FF43640052102F0B8F84FF4374074
:102C7000702102F0B3F84BF20170702102F0AEF84F
:102C80004FF43840012102F0A9F83846032102F040
:102C9000A5F84BF60200032102F0A0F808F10100AC
:102CA00080B2032102F09AF84FF43C40022102F076
:102CB00095F84BF60140002102F090F84BF60240E7
:102CC000002102F08BF84FF44940D02102F086F841
:102CD0004BF60160CFF6FF7000F5306080B2022144
:102CE00002F07CF84CF60210502102F077F84CF616
:102CF0000214CFF6FF74601C80B2502102F06EF80F
:102D0000A01C80B2502102F069F84FF45450002109
:102D100002F064F84FF46850552102F05FF84FF468
:102D2000885002F03DF8782002F0DCF94FF424508E
:102D300002F036F80020FDF71BFC40F2A810C4F2A8
:102D40002220012101604FF6FF70FDF7CBFB01B09F
:102D5000BDE8F08FA12002F023F801F063FCA88009
:102D600001F060FC0002A88001F05CFCA988084327
:102D700081B245F26172914208BF41F66310A880AA
:102D800080B248F68811884200F3C58145F20F31C0
:102D9000884200F3B28344F23051884200F339850F
:102DA00041F20551884201F06B8141F6631188427E
:102DB000C0D1E22001F0F4FF4FF48078C6F8008023
:102DC00041F21405C4F201054FF400742C604FF673
:102DD000FC39CFF6FF791D2046F8090080272F60C7
:102DE00037603460C6F800802C60022046F8090085
:102DF0002F6037603460C6F800802C60042046F8ED
:102E000009002F6037603460642002F06BF9E02025
:102E100001F0C6FFC6F800802C60012046F80900CA
:102E20002F60376034600A2002F04EF9E02001F094
:102E3000B7FFC6F800802C60032046F809004FF069
:102E4000030A2F60376034600C2002F03DF9012046
:102E500001F0A6FF0A2002F037F9E62001F0A0FFFA
:102E6000C6F800802C602F2046F809002F603760DC
:102E70003460C6F800802C60FF2046F809002F60FF
:102E800037603460C6F800802C6046F809002F6077
:102E900037603460B02001F083FFC6F800802C60FA
:102EA000202046F809002F6037603460C6F80080A3
:102EB0002C604FF0000B46F809B02F60376034608B
:102EC000C6F800802C6046F809A04FF0030A2F6076
:102ED00037603460C6F800802C6040F21F3046F83E
:102EE00009002F6037603460C6F800802C60012034
:102EF00046F809002F6037603460C6F800802C6007
:102F000040F2DF1046F809002F6037603460C6F8E1
:102F100000802C6046F809B02F6037603460B42020
:102F200001F03EFFC6F800802C60042046F809003E
:102F30002F6037603460C6F800802C6040F21F407C
:102F400046F809002F6037603460C6F800802C60B6
:102F500046F809B02F6037603460C6F800802C60F6
:102F60002E2046F809002F6037603460C6F80080D4
:102F70002C6046F809B02F6037603460C6F80080D6
:102F80002C6046F809B02F6037603460C6F80080C6
:102F90002C6046F809B02F6037603460C6F80080B6
:102FA0002C6046F809B02F6037603460B62001F01D
:102FB000F7FEC6F800802C60022046F809002F605A
:102FC00037603460C6F800802C604FF4037046F818
:102FD00009002F6037603460C6F800802C6046F826
:102FE00009B02F6037603460C6F800802C6017206D
:102FF00046F809002F6037603460C6F800802C6006
:10300000152046F809002F6037603460C6F800804C
:103010002C6046F809B02F6037603460C6F8008035
:103020002C6046F809B02F6037603460F02001F062
:10303000B7FEC6F800802C6046F809A02F60376004
:103040003460292001F0ACFED02001F0A9FEC6F8C2
:1030500000802C6046F809B02F6037603460BE20D5
:1030600001F09EFEC6F800802C60052046F809009D
:103070002F6037603460C6F800802C60FE2046F870
:1030800009002F6037603460C6F800802C604FF074
:10309000010A46F809A02F6037603460C6F8008046
:1030A0002C6046F809B02F6037603460C6F80080A5
:1030B0002C6046F809B02F6037603460C6F8008095
:1030C0002C6046F809B02F6037603460B82001F0FA
:1030D00067FEC6F800802C60032046F809002F60C8
:1030E00037603460C6F800802C6046F809A04FF0C5
:1030F000010A2F6037603460BA2001F051FEC6F833
:1031000000802C6046F809A02F603760346064208E
:1031100001F0D8FA0EE64BF20451884200F39F8288
:1031200049F22031411A212900F23A84DFE811F0F6
:1031300038013701370137013701FA043701370108
:10314000D105370137013701370137013701370121
:103150003701C5063701370137013701370137011C
:10316000370137013701370137013701370137019F
:1031700037012200CF2001F013FE002001F0FCFDFA
:10318000C12001F0F9FD302001F0F6FDED2001F045
:1031900007FE642001F0F0FD032001F0EDFD122098
:1031A00001F0EAFD812001F0E7FDE82001F0F8FDE3
:1031B000852001F0E1FD102001F0DEFD7A2001F014
:1031C000DBFDCB2001F0ECFD392001F0D5FD2C20FA
:1031D00001F0D2FD002001F0CFFD342001F0CCFD44
:1031E000022001F0C9FDF72001F0DAFD202001F0F6
:1031F000C3FDEA2001F0D4FD002001F0BDFD002058
:1032000001F0BAFDC02001F0CBFD1B2001F0B4FDA0
:10321000C12001F0C5FD012001F0AEFDC52001F087
:10322000BFFD302001F0A8FD302001F0A5FDC72032
:1032300001F0B6FDB72001F09FFD362001F0B0FD92
:10324000482001F099FD3A2001F0AAFD552001F037
:1032500093FDB12001F0A4FD002001F08DFD1A20A6
:1032600001F08AFDB62001F09BFD0A2001F084FDEB
:10327000A22001F081FDF22001F092FD002001F07A
:103280007BFD262001F08CFD012001F075FDE02082
:1032900001F086FD0F2001F06FFD2A2001F06CFD8A
:1032A000282001F069FD082001F066FD0E2001F0E4
:1032B00063FD082001F060FD542001F05DFDA920B0
:1032C00001F05AFD432001F057FD0A2001F054FDA2
:1032D0000F2001F051FD002001F04EFD002001F013
:1032E0004BFD002001F048FD002001F045FDE120EC
:1032F00001F056FD002001F03FFD152001F03CFDDE
:10330000172001F039FD072001F036FD112001F0F2
:1033100033FD062001F030FD2B2001F02DFD56205D
:1033200001F02AFD3C2001F027FD052001F024FDDD
:10333000102001F021FD0F2001F01EFD3F2001F0C3
:103340001BFD3F2001F018FD0F2001F015FD2B2083
:1033500001F026FD002001F00FFD002001F00CFD22
:10336000012001F009FD3F2001F006FD2A2001F0B7
:1033700017FD002001F000FD002001F0FDFC002001
:1033800001F0FAFCEF2001F0F7FC112001F008FD3C
:10339000782001F099FE292001F002FDCAE4C9E479
:1033A0000020002101F01AFD01204FF4807101F08E
:1033B00015FD02204FF4E06101F010FD032041F201
:1033C000300101F00BFD0420002101F007FD082071
:1033D00040F2022101F002FD0920002101F0FEFC73
:1033E0000A20002101F0FAFC0C20012101F0F6FC7A
:1033F0000D20002101F0F2FC0F20002101F0EEFC75
:10340000322001F061FE072040F2011101F0E6FCDC
:10341000322001F059FE10204FF4865101F0DEFCFD
:103420001120072101F0DAFC12204FF4887101F01D
:10343000D5FC13204FF4306101F0D0FC292000218D
:1034400001F0CCFC2B2044F2100101F0C7FC50200D
:10345000002101F0C3FC5120EF2101F0BFFC5220FC
:10346000002101F0BBFC532040F23F1101F0B6FCFB
:1034700060204FF41C5101F0B1FC6120012101F0EA
:10348000ADFC6A20002101F0A9FC8020002101F0A0
:10349000A5FC8120002101F0A1FC8220002101F087
:1034A0009DFC8320002101F099FC8420002101F083
:1034B00095FC8520002101F091FC9020102101F065
:1034C0008DFC9220002101F089FC9320012101F064
:1034D00085FC95204FF4887101F080FC9720002135
:1034E00001F07CFC9820002101F078FC072040F2DC
:1034F000731101F073FCFFF71DBC45F20F518842B8
:1035000000F3428245F2103188423DF4A0AB45F20F
:10351000084188427FF40EAC01204FF4807101F025
:103520005DFC02204FF4E06101F058FC032041F201
:10353000300101F053FC0420002101F04FFC082071
:1035400040F2072101F04AFC0920002101F046FC6D
:103550000A20002101F042FC0C20002101F03EFC79
:103560000D20002101F03AFC0F20002101F036FC73
:10357000142001F0A9FD102041F2B06101F02EFCF1
:103580001120012101F02AFC1720012101F026FC65
:1035900012204FF49C7101F021FC13204FF40061C4
:1035A00001F01CFC2920092101F018FC2A20092126
:1035B00001F014FCA420002101F010FC5020002197
:1035C00001F00CFC5120EF2101F008FC52200021F9
:1035D00001F004FC532040F23F1101F0FFFB60209A
:1035E0004FF41C5101F0FAFB6120012101F0F6FBC0
:1035F0006A20002101F0F2FB8020002101F0EEFBA7
:103600008120002101F0EAFB8220002101F0E6FB8D
:103610008320002101F0E2FB8420002101F0DEFB89
:103620008520002101F0DAFB9020132101F0D6FB68
:103630009220002101F0D2FB9320032101F0CEFB68
:1036400095204FF4887101F0C9FB072040F27311F7
:1036500001F0C4FB322001F037FDFFF76BBB4BF2EA
:103660000551884200F020864CF2055188427FF4D3
:1036700061AB0020002101F0B1FB0020002101F02E
:10368000ADFB142001F020FD0020002101F0A6FB7D
:103690000020002101F0A2FB0020002101F09EFB90
:1036A0000020002101F09AFBA420012101F096FBEB
:1036B000142001F009FD60204FF41C5101F08EFB35
:1036C000082040F6060101F089FB302040F203712A
:1036D00001F084FB3120012101F080FB3220042124
:1036E00001F07CFB33204FF4817101F077FB342033
:1036F0004FF4407101F072FB352040F2031101F0EC
:103700006DFB36201F2101F069FB372040F2037169
:1037100001F064FB3820012101F060FB3920042115
:1037200001F05CFB9020152101F058FB10204FF4B4
:10373000826101F053FB112040F2472101F04EFB62
:1037400012204FF4DE7101F049FB13204FF4606149
:1037500001F044FB782001F0B7FC01204FF48071A8
:1037600001F03CFB02204FF4007101F037FB032015
:1037700041F2300101F032FB0A20082101F02EFB5A
:103780000C20002101F02AFB0E20202101F026FB55
:103790000F20002101F022FB2020002101F01EFB60
:1037A0002120002101F01AFB2A203D2101F016FB07
:1037B000142001F089FC29202D2101F00FFB50205D
:1037C000002101F00BFB51204DF2EF0101F006FB4F
:1037D0005220002101F002FB532040F23F1101F082
:1037E000FDFA6120002101F0F9FA6A20002101F0C0
:1037F000F5FA92204FF4407101F0F0FA9320052180
:1038000001F0ECFA07204FF4807101F0E7FAFFF7BE
:1038100091BA44F23151884200F0498644F2355160
:1038200088427FF487AA1520302101F0D7FA9A2028
:10383000102101F0D3FA1120202101F0CFFA10203D
:1038400043F2284101F0CAFA1220022101F0C6FA1F
:10385000132041F2380101F0C1FA282001F034FCB4
:103860001220122101F0BAFA282001F02DFC1020BC
:1038700043F2204101F0B2FA132043F2380101F083
:10388000ADFA462001F020FC3020002101F0A6FA1C
:10389000312040F2024101F0A1FA322040F207311A
:1038A00001F09CFA33204FF4417101F097FA342073
:1038B000042101F093FA352040F2014101F08EFA23
:1038C000362040F2077101F089FA372040F20531C5
:1038D00001F084FA38204FF4C26101F07FFA3920F8
:1038E0004FF4C26101F07AFA01204FF4807101F0C7
:1038F00075FA02204FF4407101F070FA032041F292
:10390000300101F06BFA082040F6080101F066FA78
:103910000A20082101F062FA60204FF41C5101F0E6
:103920005DFA6120012101F059FA90204FF49F7156
:1039300001F054FA92204FF4807101F04FFA932075
:103940004FF4807101F04AFAA0204FF4405101F089
:1039500045FAA320102101F041FA0720012101F0CE
:103960003DFA0720212101F039FA0720232101F037
:1039700035FA0720332101F031FA072040F23311E4
:1039800001F02CFAFFF7D6B945F2105188423EF407
:10399000FAA846F6040188423DF499A8FFF7CAB98F
:1039A00048F6891188427FF4C5A90020012101F061
:1039B00015FA03204AF6A40101F010FA0C200021A8
:1039C00001F00CFA0D2040F60C0101F007FA0E2070
:1039D0004FF42C5101F002FA1E20B02101F0FEF943
:1039E000012042F63F3101F0F9F902204FF4C061A5
:1039F00001F0F4F91020002101F0F0F9112046F255
:103A0000780101F0EBF90520002101F0E7F906202B
:103A1000002101F0E3F9A8F1E50081B2162001F0E0
:103A2000DDF91720032101F0D9F9072040F23321F5
:103A300001F0D4F90B20002101F0D0F90F20002172
:103A400001F0CCF94120002101F0C8F94220002109
:103A500001F0C4F94820002101F0C0F9492040F2EA
:103A60003F1101F0BBF94A20002101F0B7F94B20CA
:103A7000002101F0B3F944204FF46F4101F0AEF999
:103A80004520002101F0AAF9462040F23F1101F043
:103A9000A5F9302040F2077101F0A0F931204FF470
:103AA000017101F09BF932204FF4017101F096F998
:103AB000332040F2025101F091F9342040F20751D5
:103AC00001F08CF935204FF4017101F087F93620AF
:103AD0004FF4017101F082F9372040F2025101F0F8
:103AE0007DF93A2040F2023101F078F93B2040F2B2
:103AF000023101F073F92320002101F06FF9242035
:103B0000002101F06BF925204FF4004101F066F926
:103B10004F20002101F062F94E20002101F05EF9F2
:103B2000FFF708B9E52047F6F00101F057F9012049
:103B30004FF4807101F052F902204FF4E06101F07E
:103B40004DF9032041F2300101F048F90420002131
:103B500001F044F9082040F2022101F03FF9092068
:103B6000002101F03BF90A20002101F037F90C2077
:103B7000002101F033F90D20002101F02FF90F2071
:103B8000002101F02BF91020002101F027F911206C
:103B9000072101F023F91220002101F01FF9132061
:103BA000002101F01BF90720002101F017F9102076
:103BB00041F2906101F012F9112040F2272101F049
:103BC0000DF912209D2101F009F913204FF4C8517D
:103BD00001F004F92920252101F000F92B200D2105
:103BE00001F0FCF83020072101F0F8F8312040F214
:103BF000033101F0F3F83220032101F0EFF8352012
:103C000040F2062101F0EAF83620082101F0E6F83A
:103C1000372040F2064101F0E1F838204FF44171BD
:103C200001F0DCF83920072101F0D8F83C2040F2FF
:103C3000026101F0D3F83D20082101F0CFF85020B7
:103C4000002101F0CBF85120EF2101F0C7F85220FC
:103C5000002101F0C3F8532040F23F1101F0BEF8FB
:103C600060204FF4274101F0B9F86120012101F0F3
:103C7000B5F86A20002101F0B1F88020002101F0A0
:103C8000ADF88120002101F0A9F88220002101F087
:103C9000A5F88320002101F0A1F88420002101F083
:103CA0009DF88520002101F099F89020102101F065
:103CB00095F892204FF4C06101F090F8072040F28F
:103CC000331101F08BF80020222101F087F8FFF773
:103CD00031B8EC2041F28F0101F080F8EF2041F281
:103CE000342101F07BF801204FF4807101F076F867
:103CF00002204FF4E06101F071F8032041F230013D
:103D000001F06CF80420002101F068F8082040F26E
:103D1000022101F063F80920002101F05FF80A2078
:103D2000002101F05BF80C20012101F057F80D2073
:103D3000002101F053F80F20002101F04FF810206E
:103D4000002101F04BF81120072101F047F8122063
:103D5000002101F043F81320002101F03FF8072073
:103D6000012101F03BF8322001F0AEF9102041F2C0
:103D7000904101F033F8112040F2272101F02EF894
:103D8000322001F0A1F912208A2101F027F8322017
:103D900001F09AF913204FF4D05101F01FF82920B7
:103DA000062101F01BF82B200D2101F017F832201D
:103DB00001F08AF92020002101F010F821200021D3
:103DC00001F00CF8322001F07FF93020002101F0E1
:103DD00005F8312040F2046101F000F8322040F291
:103DE000053100F0FBFF3520002100F0F7FF362001
:103DF00040F6094100F0F2FF37204FF4017100F066
:103E0000EDFF382040F2013100F0E8FF392040F2A8
:103E1000077100F0E3FF3C20002100F0DFFF3D20B0
:103E200040F60A2100F0DAFF322001F04DF950206F
:103E3000002100F0D3FF5120EF2100F0CFFF5220EE
:103E4000002100F0CBFF532040F23F1100F0C6FFED
:103E500060204FF4274100F0C1FF6120012100F0F4
:103E6000BDFF6A20002100F0B9FF8020002100F092
:103E7000B5FF8120002100F0B1FF8220002100F079
:103E8000ADFF8320002100F0A9FF8420002100F075
:103E9000A5FF8520002100F0A1FF9020102100F057
:103EA0009DFF92204FF4C06100F098FF072040F280
:103EB000331100F093FFFEF73DBFE72041F21401FC
:103EC00000F08CFF01204FF4807100F087FF02208A
:103ED0004FF4007100F082FF032041F2380100F03E
:103EE0007DFF082040F2022100F078FF0920002128
:103EF00000F074FF0A20002100F070FF0C20002168
:103F000000F06CFF0D20002100F068FF0F20002161
:103F100000F064FF1020002100F060FF1120072155
:103F200000F05CFF1220002100F058FF1320002158
:103F300000F054FFC82001F0C7F8102041F2906152
:103F400000F04CFF112040F2272100F047FF322003
:103F500001F0BAF812200C2100F040FF322001F0ED
:103F6000B3F813204FF4006100F038FF292011212D
:103F700000F034FF2B200B2100F030FF322001F045
:103F8000A3F82020002100F029FF212040F23F115A
:103F900000F024FF3020002100F020FF31204FF4FA
:103FA000837100F01BFF3220002100F017FF352045
:103FB0004FF4017100F012FF362041F20A6100F067
:103FC0000DFF372040F2077100F008FF38204FF452
:103FD000837100F003FF392040F2077100F0FEFE0C
:103FE0003C2040F2024100F0F9FE3D2040F60F4136
:103FF00000F0F4FE5020002100F0F0FE5120EF21EF
:1040000000F0ECFE5220002100F0E8FE532040F2C8
:104010003F1100F0E3FE60204FF41C5100F0DEFE83
:104020006120012100F0DAFE6A20002100F0D6FEB6
:104030008020002100F0D2FE8120002100F0CEFE81
:104040008220002100F0CAFE8320002100F0C6FE7D
:104050008420002100F0C2FE8520002100F0BEFE79
:104060009020102100F0BAFE92204FF4C06100F0C1
:10407000B5FE072040F2331100F0B0FEFEF75ABE45
:104080000720002100F0AAFE322001F01DF81220C6
:104090004FF48E7100F0A2FEA420012100F09EFEDC
:1040A00008200F2100F09AFE0A20082100F096FE59
:1040B0000D20082100F092FE302040F2077100F040
:1040C0008DFE3120072100F089FE322040F203618D
:1040D00000F084FE33204FF4E06100F07FFE3420D6
:1040E00040F2022100F07AFE3520022100F076FE37
:1040F000362041F60F7100F071FE372040F2077153
:1041000000F06CFE3820002100F068FE392000210C
:1041100000F064FE3A2040F2077100F05FFE3B20A1
:10412000002100F05BFE3C20072100F057FE3D20FF
:10413000002100F053FE322000F0C6FF07200121CD
:1041400000F04CFE1720012100F048FE322000F064
:10415000BBFF10204FF4BD5100F040FE112040F293
:10416000172100F03BFE12204FF48F7100F036FE55
:1041700013204FF4706100F031FE2A20002100F07E
:104180002DFE29200A2100F029FE12204FF49F71F4
:1041900000F024FE5020002100F020FE5120EF21ED
:1041A00000F01CFE5220002100F018FE532040F2C7
:1041B0003F1100F013FE60204FF41C5100F00EFE82
:1041C0006120012100F00AFE6A20002100F006FEB5
:1041D0008020002100F002FE8120002100F0FEFD81
:1041E0008220002100F0FAFD8320002100F0F6FD7E
:1041F0008420002100F0F2FD8520002100F0EEFD7A
:104200009020132100F0EAFD92204FF4407100F05D
:10421000E5FD9320052100F0E1FD9520002100F04F
:10422000DDFD9720002100F0D9FD9820002100F04D
:10423000D5FD01204FF4807100F0D0FD02204FF435
:10424000E06100F0CBFD032041F2380100F0C6FD33
:104250000420002100F0C2FD0C20002100F0BEFD72
:104260000F20002100F0BAFD2020002100F0B6FD53
:104270002120002100F0B2FD0720212100F0AEFD39
:10428000142000F021FF0720612100F0A7FD142079
:1042900000F01AFF072040F2731100F09FFD142078
:1042A00000F012FFFEF746BD0020002100F096FD51
:1042B0000020002100F092FD0020002100F08EFD82
:1042C0000020002100F08AFDA420012100F086FDDD
:1042D000142000F0F9FE60204FF41C5100F07EFD28
:1042E000082040F2022100F079FD30204FF40571E2
:1042F00000F074FD312043F2157100F06FFD3220A3
:1043000040F2046100F06AFD332040F6166100F0CF
:1043100065FD342042F2112100F060FD35204FF49C
:10432000A85100F05BFD362048F2075100F056FD21
:10433000372041F2074100F051FD382041F203419E
:1043400000F04CFD3920202100F048FD90201A217A
:1043500000F044FD1020002100F040FD1120072155
:1043600000F03CFD1220002100F038FD1320002158
:1043700000F034FD142000F0A7FE10204FF4E66199
:1043800000F02CFD112040F2371100F027FD142021
:1043900000F09AFE12204FF4DC7100F01FFD142093
:1043A00000F092FE13204FF4706100F017FD2A20F8
:1043B000802100F013FD2920482100F00FFD14207A
:1043C00000F082FE01204FF4807100F007FD022012
:1043D0004FF4E06100F002FD032041F2380100F0EB
:1043E000FDFC082040F2022100F0F8FC0A20002128
:1043F00000F0F4FC0C20002100F0F0FC0D20002166
:1044000000F0ECFC0E20302100F0E8FC50200021F0
:1044100000F0E4FC5120EF2100F0E0FC52200021EC
:1044200000F0DCFC532040F23F1100F0D7FC60208C
:104430004FF41C5100F0D2FC6120012100F0CEFCB1
:104440006A20002100F0CAFC9020112100F0C6FC77
:1044500092204FF4C06100F0C1FC932040F2024171
:1044600000F0BCFC9420022100F0B8FC142000F005
:104470002BFE0720012100F0B1FC142000F024FEE7
:104480000720612100F0AAFC072040F2731100F020
:10449000A5FC2020002100F0A1FC2120002100F03B
:1044A0009DFC0020222100F099FCFEF743BC002077
:1044B000012100F093FC0A2000F006FE102041F2DA
:1044C000286100F08BFC12200E2100F087FC1320E5
:1044D00040F6392100F082FC0A2000F0F5FD1120A1
:1044E000402100F07BFC1520502100F077FC0A20D1
:1044F00000F0EAFD12201E2100F070FC0A2000F0FE
:10450000E3FD10204FF4B15100F068FC132042F697
:10451000392100F063FC0A2000F0D6FD01204FF4A1
:10452000807100F05BFC02204FF4407100F056FCFB
:10453000032041F2380100F051FC082040F2022132
:1045400000F04CFC0A20082100F048FC302000213B
:1045500000F044FC312040F2024100F03FFC3220E8
:104560004FF4837100F03AFC332040F2035100F025
:1045700035FC34204FF4827100F030FC352040F2DD
:10458000013100F02BFC362040F2077100F026FCD0
:10459000372040F2053100F021FC38204FF4027141
:1045A00000F01CFC392040F60B7100F017FC412094
:1045B000022100F013FC60204FF41C5100F00EFCAF
:1045C0006120012100F00AFC90204FF4047100F0FA
:1045D00005FC92204FF4857100F000FC932004212B
:1045E00000F0FCFBA0204FF4807100F0F7FB0720E7
:1045F000012100F0F3FB0720212100F0EFFB072051
:10460000232100F0EBFB0720332100F0E7FB07201C
:1046100040F2331100F0E2FBA020002100F0DEFBAD
:10462000FEF788BB2DE9F04381B04FF6F038CFF6A6
:10463000FF7841F21004C4F201044FF0883044F8CE
:1046400008004FF6F439CFF6FF7944F809004FF629
:10465000FC37CFF6FF770020E0514FF480702060E8
:1046600041F21400C4F201004FF4007505604026C9
:10467000066040F20000C2F20000808848F689110E
:10468000884204BF022000F02DFD4FF6F830CFF62F
:10469000FF702058266025604FF0333144F8081031
:1046A00044F809104FF6FF71E15180B201B0BDE846
:1046B000F083000080B500F073FBBDE88040FFF799
:1046C000B1BF00002DE9F04381B00446BE2000F0E8
:1046D00067FB41F21005C4F201054FF48078C5F87C
:1046E00000804FF400766E6040F60C49C4F2010978
:1046F0000520C9F8000080276F602F602E60C5F884
:1047000000806E602046FBF7A1FD46F26663C4F2AE
:1047100004034FF06632FBF727FDFBF7A4FDC9F851
:1047200000006F602F602E60C5F800806E60012071
:10473000C9F800006F602F602E60C5F800806E60C1
:10474000FF20C9F800006F602F602E60C5F8008060
:104750006E600020C9F800006F602F602E60C5F801
:1047600000806E60C9F800006F602F602E6001B09D
:10477000BDE8F0832DE9F04F81B040F2000BC2F2AA
:10478000000B9BF8061061B1012927D1BBF804107A
:1047900041F66312914221D046F6040291421DD0A7
:1047A00005E0BBF8041041F66312914218D10728C6
:1047B00014D8DFE800F00406080A0C0E10120620D8
:1047C0000CE007200AE0042008E0052006E00120B4
:1047D00004E0002002E0032000E00220BBF8041007
:1047E00045F20F5291420CDD45F2105291421CBF2E
:1047F00049F2413291420CD046F60402914208D06F
:1048000012E041F66312914203D045F21032914218
:104810000AD10138062819D8DFE800F0041A1C1E56
:104820002022240080241EE04FF48051072800F24B
:104830004F81DFE810F008003C013F014D014201CB
:10484000450148014B0141F2300141E100240AE0F9
:10485000402408E0C02406E0202404E0602402E0B4
:10486000A02400E0E024BBF8041045F210523620EA
:10487000914208BF4FF4585041F21006C4F20106AD
:1048800040F60C48C4F2010841F66315A9421CBF6A
:1048900045F21032914205D045F21052914218BFB4
:1048A00044F00804BBF8041046F60402914208BF25
:1048B00044F0020480B2214600F090FABBF80400F4
:1048C000A84211D1BBF80A0000F06AFA4FF48070D8
:1048D00030604FF4007070600021C8F80010802133
:1048E0007160316030608AE0BBF80210BBF80000F4
:1048F000A20600F1D880884203D9ABF80010ABF8CB
:104900000200BBF80450BBF80A0000F049FA4FF46B
:104910008079C6F800904FF4007474604FF0000A7C
:10492000C8F800A0802777603760346045F21050E7
:10493000854264D1BBF80A00013080B200F030FA41
:10494000C6F800907460C8F800A0776037603460E3
:10495000BBF80A00023080B200F022FAC6F80090DC
:104960007460BBF8000001380012C8F800007760DE
:1049700037603460BBF80A00033080B200F010FAF0
:10498000C6F800907460BBF80000FF30C0B2C8F8F1
:104990000000776037603460BBF80C0000F000FA6C
:1049A000C6F800907460C8F800A077603760346083
:1049B000BBF80C00013080B200F0F2F9C6F80090AC
:1049C0007460C8F800A0776037603460BBF80C00F2
:1049D000023080B200F0E4F9C6F800907460BBF8D1
:1049E000020001380012C8F80000776037603460B8
:1049F000BBF80C00033080B200F0D2F940E04FF475
:104A0000807535604FF4007474604FF00009C8F889
:104A10000090802777603760346035607460BBF841
:104A2000000001380012C8F8000077603760346079
:104A300035607460BBF80000FF30C0B2C8F80000F9
:104A4000776037603460BBF80C0000F0A9F935607E
:104A50007460C8F8009077603760346035607460C7
:104A6000C8F8009077603760346035607460BBF8D8
:104A7000020001380012C8F8000077603760346027
:104A80004FF4807030604FF400707060BBF802101B
:104A9000FF31C9B2C8F80010802171603160306008
:104AA00001B0BDE8F08F8842FFF427AF29E741F25B
:104AB00010010DE04FF481510AE041F2380107E0A6
:104AC00041F2280104E041F2180101E041F208013D
:104AD00089B2032001B0BDE8F04F00F07FB90000BB
:104AE0002DE9F04F81B08A46054640F2000BC2F234
:104AF000000BBBF80410BBF80A004FF6FF7940F634
:104B00000C48C4F2010841F21006C4F2010645F255
:104B10000F5291421FDD45F2105291422FD046F6BE
:104B2000040291425FD049F2413291421CD09BF87D
:104B30000610012902BF85EA0901BBF800208D1883
:104B4000A9B200F04BF9BBF80C00514601B0BDE82A
:104B5000F04F00F043B941F66312914200F08180BA
:104B600045F210329142E2D100F01AF94FF4807907
:104B7000C6F800904FF400747460280A47E000F013
:104B80000FF94FF48079C6F800904FF40074746008
:104B9000280AC8F800008027776037603460BBF8C7
:104BA0000A00013080B200F0FBF8C6F80090746093
:104BB000E8B2C8F80000776037603460BBF80C00DA
:104BC00000F0EEF8C6F8009074604FEA1A20C8F8BA
:104BD0000000776037603460BBF80C00013080B2B1
:104BE00000F0DEF830E09BF80610012902BF85EAEC
:104BF0000901BBF800208D1800F0D2F84FF480793D
:104C0000C6F800904FF400747460C5F30720C8F82C
:104C100000008027776037603460C6F800907460C9
:104C2000E8B2C8F80000776037603460BBF80C0069
:104C300000F0B6F8C6F8009074604FEA1A20C8F881
:104C40000000776037603460C6F8009074605FFAE7
:104C50008AF0C8F8000077603760346001B0BDE8C2
:104C6000F08F9BF8061039B300F09AF84FF480707B
:104C700030604FF4007171602A0AC8F80020802269
:104C800072603260316030607160EBB2C8F8003041
:104C900072603260316030607160BBF80030013B9F
:104CA0001B12C8F800307260326031603060716091
:104CB000BBF80000013825E0BBF8004000F070F8B8
:104CC0004FF4807131604FF4007272600020C8F8B8
:104CD0000000802373603360326031607260C8F816
:104CE00000007360336032603160726085EA0900F1
:104CF000204480B2070AC8F80070736033603260E5
:104D000031607260C0B2C8F8000080247460346002
:104D10004FF400753560BBF80C0000F041F84FF41B
:104D20008070306075604FEA1A21C8F80010746016
:104D300034603560306075605FFA8AF1C8F8001041
:104D400074603460356030607560BBF80210013902
:104D50000912C8F800107460346035603060756006
:104D6000BBF80200FF30C0B2C8F8000074603460C5
:104D7000356001B0BDE8F08F41F21001C4F20101CD
:104D80004FF480720A604FF400724A6040F60C43A0
:104D9000C4F2010318608020486008600A60704710
:104DA00041F21401C4F201014FF480720A604FF421
:104DB00000720A6040F60C43C4F2010318608020C0
:104DC000086041F8040C41F8042C704740F20000E0
:104DD000C2F200000089FFF7E3BF000010B50C46E7
:104DE000FFF7DEFF41F21000C4F201004FF48071C2
:104DF00001604FF40071416040F60C42C4F20102C0
:104E00001460802242600260016010BD41F218020D
:104E1000C4F20202002911680CBF21EA0000084315
:104E200010607047AFF3008082B0002001900090C6
:104E300041F20400C4F2020050F8041C41F4803135
:104E400040F8041C50F8041C01F400310091019951
:104E500001310191009919B90199B1F5A06FF1D112
:104E600050F8041C11F4003F0CBF002101210091F7
:104E7000009901293BD1D0F8FC1F41F01001C0F886
:104E8000FC1FD0F8FC1F21F00301C0F8FC1FD0F874
:104E9000FC1F41F00201C0F8FC1F016801600168BD
:104EA0000160016841F480610160016821F47C11B6
:104EB0000160016841F4E811016050F8041C41F000
:104EC000807140F8041C00BF50F8041C11F0007FF2
:104ED000FAD0016821F003010160016841F002018C
:104EE000016000BF016801F00C010829FAD102B08D
:104EF0007047000040F21400C2F200000168013166
:104F00000160B1F5807F38BF70474FF0000101604C
:104F100040F21000C2F20000016801F101010160DD
:104F20007047000080B541F20000C4F20200016841
:104F300041F00101016041680022CFF6FF021140FB
:104F4000416001684FF6FF72CFF6F66211400160D2
:104F5000016821F480210160416821F4FE01416073
:104F60004FF41F018160FFF75DFF4EF60850CEF24F
:104F700000004FF00061016080BD0000014640F676
:104F80000000C4F20100012906D0002918BF7047B3
:104F90004FF48071FBF7A4BA00F540600421FBF7E1
:104FA0009FBA0000014640F60000C4F2010001294A
:104FB00006D0002918BF70474FF48071FBF78EBAF6
:104FC00000F540600421FBF789BA000070B582B09B
:104FD00024200121FFF71AFF4FF48070ADF8040080
:104FE00041F20206ADF8066040F60004C4F2010486
:104FF00001AD20462946FBF7DFF90420ADF8040097
:10500000ADF8066004F5406630462946FBF7D4F952
:1050100020464FF48071FBF763FA30460421FBF71A
:105020005FFA02B070BD000010B500F083F8FFF722
:10503000CDFFFBF7CBFC00F01FF80024E00708D001
:1050400010E000BF4FF4FA7000F03EF80134E007C2
:1050500008D10020FFF792FFA00708D50120FFF735
:10506000A1FFEFE70020FFF79DFFA007F6D4012086
:10507000FFF784FFE6E70000F0B581B0002445F2B9
:105080009415C0F6000505E00134B4F5A07F04BF17
:1050900001B0F0BD66080027C6EB061005EB001056
:1050A00027F00101425AB8B2A1B2FBF70FFB01375A
:1050B000F02FF1D1E8E7000042F228314843704771
:1050C00000EBC0007047000010B5FFF7F5FF044685
:1050D00000F01AF8001941EBE471BDE8104000F04F
:1050E0003FB8000070B5044600F00EF805460E46C5
:1050F0002046FFF7E5FF2A1846EBE0711046BDE8B1
:10510000704000F02DB800004EF21800CEF2000002
:1051100000686FF07F41081A40F21401C2F20001EA
:10512000096800EB016040F21001C2F20001096859
:105130007047000040F21000C2F200000021016040
:1051400040F21400C2F2000001604EF21000CEF2F4
:1051500000006FF07F414160032101607047000053
:10516000B0B50C46054600BFFFF7CEFF401B71EB04
:105170000400F9DBB0BD02E008C8121F08C1002A14
:10518000FAD170477047002001E001C1121F002AC8
:10519000FBD17047148D5595B6A518AE38B638B604
:1051A00018BE58BE79C679C679C679C659BE59BEE9
:1051B00059BE79BE39AE38AE18A618A6F79DD79558
:1051C000B68DB685B685757D5575757D967D96854A
:1051D0009685B67D967596759675B67DB6759675F7
:1051E0009675B675B675B675B775B66D966DB66DBE
:1051F000B66DB66DB76DB76DB775B76DB66D966DAB
:10520000B76DD76DB76DB76DD76DD765B765B76536
:10521000D865B865D86DD875F975F875F86DD76D1E
:10522000D76DD76DD76DD76DD76DD76DD76DD76D5E
:10523000B76DB76DF775D76DB76DB76DD76DD76DA6
:10524000D76DD76DB765F86DF86DF765F76DD76DEC
:10525000D66DD66DB76DD76DD76DD76DD76DD66D51
:10526000D66DD66DF66DF76DF76DF76DD76DB76DC1
:10527000B775B76DB76DD76DF865D765D765D86D5C
:10528000B8759775FBCEFBCEFBD63CDF3CDFFBDE73
:10529000DAD6BAD6DAD61BDF5CE79DEF9DEF7DE765
:1052A0005DDF5DDF3CD71CD71CCF1CCF1BC7FBBE0F
:1052B000DBB6DAB6BAAE79A6389E589E589E189ECE
:1052C000F895F895F78DF78DB785967D967D967D47
:1052D000B67DB67D96759675B67D96759675B675DE
:1052E000967596759675977596759775B675B77523
:1052F000B775B775B76DB76DB76DB76D976DB76D9E
:10530000B76DB76DB76DB86DB86DB76DB76DB76D7B
:10531000B76DB76DD76DD76DB76DB76DB76DB76D2D
:10532000B775D76DB66DD76DD76DD76DB76DB76DD6
:10533000D76DD76DD76DD865B765B665D76DD76DA5
:10534000D66DD76DD775B775B76DB76DB66DB66DD0
:10535000D66DD66DD76DD775D775D775D775D77507
:10536000B775D76DB76DD765D765F865D765B7657C
:10537000976D9775DADEBAD699D6DAD6DADEBADE66
:1053800099DE78D699D6DADE1BE75CEF3CEF3BE797
:105390001BE71BE77DEF7DEF7EEF7EEF9EEF7DE766
:1053A0007DE79EE79DE77DDF5DD77DDF7DD75DD71C
:1053B0003CCF3DCFFCC6FBBE9AAE38A6189EF89DEA
:1053C000F795D795D795F895189E1896189618962C
:1053D00018961896F88DD785967D967D967D767D64
:1053E0007575556D9675967596757675767596750F
:1053F000967597759775976D976D976DB66DB66D38
:10540000B76DB76DB76DB76DB76DB76DB775B7756C
:10541000B775B775D875D76DB76DB76DB76DB76D13
:10542000B76DB76DD76DD76DF86DF86DD775D76D52
:10543000B66DB775B775B7759775B775B775B77535
:10544000B775B675B775B77DB77DB775B775B775ED
:10545000B775B775D775D76DF765F765F765D76D0C
:10546000D86DF86D58D637CE37CE78D6B9E6B9E6CE
:10547000B9E6B8E6D9EEF9EE1AEF1AEFFAEEFAE667
:10548000FAEE1BEF1BF71CF73CF75CF75CF75CEFE1
:105490005CEF7DEF3CE73CE75DE77DEF9DE77EE776
:1054A0007DE77EE7BEE7BEDF7DDF1CCFFBC6DBC648
:1054B0009ABE59B67AB6BABEDBBEDBBEBBBEDBBE99
:1054C000DBBEDBBEDBBEBBAE9AAE79A6599E189E94
:1054D000F795D78D968D968596857585757D757DA5
:1054E0007685767D767D967D7675967596759675BC
:1054F0009575757595759675967596759675967577
:1055000096759675967596759675B675B775D77DB9
:10551000B775B775B7759775B775977576757675ED
:10552000967D967D767D567D567D568576857685EB
:105530005685758555857585768576859685967D9E
:10554000967DB67D9575B675B675B66DB66DD76D2B
:10555000B76D966536D637DE57DE77E698E698EE75
:1055600098EEB8EE98EEB8EED9F6F9EED9EED9EE9F
:10557000FAEE1AF73AF73BF73BF73BF73BF71BF727
:105580001BEF3BEF3CEF5CEF5CEF7DEF7DEF5DEF02
:105590007DEF7DEF7DEF9EEF9EEF7DE77DE77DE781
:1055A0001CDFDBD6DBD6FCD61CD71CD71CD71CD700
:1055B0001CDF3CD75DD75DD73DCF3CCF1CCFFBC6B2
:1055C000FBC6DBC6DAC6BABEBABE99B679B659AE64
:1055D00059AE79AE189E179E179EF795F795F795D9
:1055E000F78DF78DD78DF78DF78DF78DF88DF88DB9
:1055F00018961896399E59A69AAE7AA61896B68D20
:105600007685768576855585758D968D7695769594
:105610007695358DD384B284B284F394549D95AD40
:10562000B6B5D6B5B6AD95AD75A575A5759D5595AF
:105630005495548D758D758D958D7585757D967583
:10564000D775F87577E697E6B8EED8EEB7EE97EE31
:1056500097EEB8F6B7F6B8F6D8F6F8F6F9F6F9F622
:105660001AF73AF73AF73AF73AF73AF73AF71AF7F2
:105670001BF73BF71BEF1BEF3BEF3BEF3CEF5CEF08
:105680005CEF5CEF5CEF7DEF7DEF5DEF5CEF3CE7A7
:10569000FBE6DADEFBDEFBDEFBDEFBDEFBDEFBDE5B
:1056A0001BE71BDFFBDE1BD71BD71BD7FBD6FBD6AD
:1056B000FAD6FAD6FBD6FAD6FAD6DAD6DACEDACED9
:1056C000DACEDACE3BD71BCF1BCFFACEFAC61BCF32
:1056D0003BCF3CCF5CCF5CCF3CCF3CC73CC73CC74B
:1056E0003DCF5DCF1CCF5DD77EDF5DD73CD71BCFD5
:1056F000FBCE1BD7DACEBACEDAD69AD659CE59CE51
:1057000079D638CE58D616CE95C553BD12BDD1B474
:10571000B1B4B1B4D1B4D1B4F1B412B533B553AD61
:1057200053AD74ADF6BDD6B5F7B517B6D7A575852B
:105730005575757576E697E6D8EED8F6D8F6D7F6AD
:10574000B7EE97EED7F6D7F6D8F6D8F6F8F619F7FB
:1057500039F73AF739F739EF19EF39F73AF73AF7F6
:105760003AF73AF71AEF1AEF1AEF1AE73BE73BE777
:105770003BE73BE73BEF1BEF1BE7FBE6DADEBADE7E
:1057800099DE99D6B9DEB9DEB9DEB9DEB9DEB9DEA9
:10579000B9DEB9DE99D699D699D699D699D678D662
:1057A00078D678D678D678D678D698D698D698D629
:1057B00098D699D698D698D698D678CE78CE99D6C7
:1057C000D9D6FAD63BDF5CDF5CE75CE75CDF3CDF29
:1057D0003DDF3DDF5DEF5CEF3CE73CE73BE71BE790
:1057E000FAE6FAE6B9E657DED5D533C5D2BC33CDF5
:1057F00095DD54D5D1C48FC46FBC6FBC6FC46EC46B
:105800006EC48FC4AFCC8FC48FC4AFC4AFBC8EB4D2
:105810006EAC6FAC90B4D1BC34C5D6CD38CE38B6F2
:10582000B695557DB7EEB7EEF8F618F718FFF8F60F
:10583000B7F696EE96EEB7EED7EEF8F619F739F71B
:1058400039F739F759F739F719EF39F719F719F720
:105850001AF71AF7FAEEF9EED9E6D9E6D9DED9DE6B
:10586000B9D6B8D6B9DE99DE99DE99DE98DE78D65B
:1058700098DE98DE78D658D657D657D657D657D60C
:1058800057D637D637D637D637D637D637D637D690
:1058900036D636D636D656D657DE57DE57DE57DEE4
:1058A00036D636D677DE77DE77DE57DE57D657D652
:1058B00077DE98DEB9DEFAE63BEF5CEF5CF75CEF93
:1058C0005CEF5CEF3CEF5CF77CF77CF75BF71AEF83
:1058D000D9EEB8E6F5DD32CD8FBC2EB44EBCD1D4B6
:1058E000B1D4CDBB2DC40DC42DC44DCC4ED44DCCA4
:1058F0002DCC4DCC6ED46ECC8ED4AFD4CFD4AFCC17
:10590000AEC4AFCCB0CC90C44FBC91B475C579CE09
:1059100079B6B595F8F6F8F618F718F718F718F7F6
:10592000F8F6D8F6D7F6D7EED8F6F8F619F739F72D
:105930003AF73AF719F739F719F719F719F719F785
:10594000F9F6D9EEFAF699E6B9E677DE57D657D6E4
:1059500016CE37CE57D678D677D657D657D657D60F
:1059600057D616CE36D616CEF5CDF5CD15CEF5CD0D
:10597000F5CDF5CDF5CDF5CDD5CDD5CDF5CDF5D54F
:10598000F5D5F5D556DE35DE15DE35DE56DE15DE0F
:10599000F5DD35DE15DE56E655E635DE56E656E62D
:1059A00036DE56DE97E6B8EEF9EE1AF71AF73BF751
:1059B0005CFF7CFF5CF75CF77CF77CF75BF71AEF2A
:1059C000D8EED8EE51CD31D530D5F0D4CFD48ED459
:1059D0002DCCECC30DCCECCBECCB4ED44DD4AEDC0B
:1059E0008ED42CCC8ED44DCC6DCC8ED4CFDC6ECC62
:1059F0008ECC8ECCD0DC4EC490CCD1C490A416BE3C
:105A0000B9BE538D18F718F718FF18FF18FF18FFC5
:105A1000F8F6D8F6F8F6F8F6F8F619F719F739FFA8
:105A200019F719F719F719F719F7F9F6F9F6D9F679
:105A3000D9F6B9EE78E657E637DED5CD94C5B4C5CC
:105A4000D5CD16CE57DE57DE36D616D616D616D696
:105A500016D6F5CDF5CDD5CDD4CDD4CDD4CDD4CDB0
:105A6000B4CDB4CDD4D5F4D5F4D5D4D5B3CDD3D528
:105A7000D4D514DE14DE35E655E635E635E634DEFB
:105A800014DE14E614DE34E614E614DE35E635E6FC
:105A900035E655E656E697EED8EEF9F619F71AF719
:105AA0003AFF3BF75BF75BF77BF77CF75BF71AEFA7
:105AB000D8EEB7EE35EEF3ED71E50FDD0FE510E54D
:105AC000AEDC0CCCACC3ACC3CCC34ED46ED48ED441
:105AD0006DD44DCC4DCC4DCC4DCCAED46ECC4ECC4B
